{
  "_format": "hh-sol-artifact-1",
  "contractName": "gasChallenge",
  "sourceName": "contracts/gasChallenge.sol",
  "abi": [
    {
      "inputs": [],
      "name": "getSumOfArray",
      "outputs": [
        {
          "internalType": "uint256",
          "name": "",
          "type": "uint256"
        }
      ],
      "stateMutability": "view",
      "type": "function"
    },
    {
      "inputs": [],
      "name": "notOptimizedFunction",
      "outputs": [],
      "stateMutability": "nonpayable",
      "type": "function"
    },
    {
      "inputs": [],
      "name": "optimizedFunction",
      "outputs": [],
      "stateMutability": "nonpayable",
      "type": "function"
    }
  ],
  "bytecode": "0x6080604052604051806101400160405280600160ff168152602001600260ff168152602001600360ff168152602001600460ff168152602001600560ff168152602001600660ff168152602001600760ff168152602001600860ff168152602001600960ff168152602001600a60ff16815250600090600a610082929190610095565b5034801561008f57600080fd5b506100f7565b82600a81019282156100c9579160200282015b828111156100c8578251829060ff169055916020019190600101906100a8565b5b5090506100d691906100da565b5090565b5b808211156100f35760008160009055506001016100db565b5090565b6102a9806101066000396000f3fe608060405234801561001057600080fd5b50600436106100415760003560e01c806368b5f223146100465780637ce418941461005057806380d2c8031461005a575b600080fd5b61004e610078565b005b6100586100b4565b005b610062610114565b60405161006f919061017e565b60405180910390f35b60005b600a8110156100b15760008082600a811061009957610098610199565b5b018190555080806100a9906101f7565b91505061007b565b50565b600080600a90505b60008111156101105760008260018303600a81106100dd576100dc610199565b5b0154146101025760008260018303600a81106100fc576100fb610199565b5b01819055505b8080600190039150506100bc565b5050565b6000806000905060005b600a81101561015d57600081600a811061013b5761013a610199565b5b015482610148919061023f565b91508080610155906101f7565b91505061011e565b508091505090565b6000819050919050565b61017881610165565b82525050565b6000602082019050610193600083018461016f565b92915050565b7f4e487b7100000000000000000000000000000000000000000000000000000000600052603260045260246000fd5b7f4e487b7100000000000000000000000000000000000000000000000000000000600052601160045260246000fd5b600061020282610165565b91507fffffffffffffffffffffffffffffffffffffffffffffffffffffffffffffffff8203610234576102336101c8565b5b600182019050919050565b600061024a82610165565b915061025583610165565b925082820190508082111561026d5761026c6101c8565b5b9291505056fea264697066735822122018719bceb7414ca49e2977e2d805065752b401048aa52f20b68ddd88bd1c20f764736f6c63430008120033",
  "linkReferences": {},
  "deployedLinkReferences": {}
}