{
  "_format": "hh-sol-artifact-1",
  "contractName": "gasChallenge",
  "sourceName": "contracts/gasChallenge.sol",
  "abi": [
    {
      "inputs": [],
      "name": "getSumOfArray",
      "outputs": [
        {
          "internalType": "uint256",
          "name": "",
          "type": "uint256"
        }
      ],
      "stateMutability": "view",
      "type": "function"
    },
    {
      "inputs": [],
      "name": "notOptimizedFunction",
      "outputs": [],
      "stateMutability": "nonpayable",
      "type": "function"
    },
    {
      "inputs": [],
      "name": "optimizedFunction",
      "outputs": [],
      "stateMutability": "nonpayable",
      "type": "function"
    }
  ],
  "bytecode": "0x6080604052604051806101400160405280600160ff168152602001600260ff168152602001600360ff168152602001600460ff168152602001600560ff168152602001600660ff168152602001600760ff168152602001600860ff168152602001600960ff168152602001600a60ff16815250600090600a610082929190610095565b5034801561008f57600080fd5b506100f7565b82600a81019282156100c9579160200282015b828111156100c8578251829060ff169055916020019190600101906100a8565b5b5090506100d691906100da565b5090565b5b808211156100f35760008160009055506001016100db565b5090565b610389806101066000396000f3fe608060405234801561001057600080fd5b50600436106100415760003560e01c806368b5f223146100465780637ce418941461005057806380d2c8031461005a575b600080fd5b61004e610078565b005b6100586100b4565b005b610062610197565b60405161006f9190610201565b60405180910390f35b60005b600a8110156100b15760008082600a81106100995761009861021c565b5b018190555080806100a99061027a565b91505061007b565b50565b600080600a806020026040519081016040528092919082600a80156100ee576020028201915b8154815260200190600101908083116100da575b505050505090506000600a90505b60008111156101425760008260018361011591906102c2565b600a81106101265761012561021c565b5b602002018181525050808061013a906102f6565b9150506100fc565b5060005b600a811015610193578181600a81106101625761016161021c565b5b6020020151600082600a811061017b5761017a61021c565b5b0181905550808061018b9061027a565b915050610146565b5050565b6000806000905060005b600a8110156101e057600081600a81106101be576101bd61021c565b5b0154826101cb919061031f565b915080806101d89061027a565b9150506101a1565b508091505090565b6000819050919050565b6101fb816101e8565b82525050565b600060208201905061021660008301846101f2565b92915050565b7f4e487b7100000000000000000000000000000000000000000000000000000000600052603260045260246000fd5b7f4e487b7100000000000000000000000000000000000000000000000000000000600052601160045260246000fd5b6000610285826101e8565b91507fffffffffffffffffffffffffffffffffffffffffffffffffffffffffffffffff82036102b7576102b661024b565b5b600182019050919050565b60006102cd826101e8565b91506102d8836101e8565b92508282039050818111156102f0576102ef61024b565b5b92915050565b6000610301826101e8565b9150600082036103145761031361024b565b5b600182039050919050565b600061032a826101e8565b9150610335836101e8565b925082820190508082111561034d5761034c61024b565b5b9291505056fea26469706673582212208c611113c36db3e91e80e1003c56ac9f7ef02eb386d43079f4c983f1ef58603b64736f6c63430008120033",
  "linkReferences": {},
  "deployedLinkReferences": {}
}